:100000000C942A000C943F000C943F000C943F0089
:100010000C943F000C943F000C943F000C943F0064
:100020000C943F000C943F000C943F000C943F0054
:100030000C943F000C943F000C943F000C943F0044
:100040000C943F000C943F000C943F000C943F0034
:100050000C943F0011241FBECFE5D4E0DEBFCDBF1E
:1000600010E0A0E6B0E0ECE4FEE002C005900D92E6
:10007000AA39B107D9F70E9491030C9424070C9474
:100080000000672B09F0DFC0009721F48BB38E7F4F
:100090008BBB08958130910521F48BB38D7F8BBB91
:1000A00008958230910521F48BB38B7F8BBB08952B
:1000B0008330910521F48BB3877F8BBB0895843007
:1000C000910521F48BB38F7E8BBB0895853091050C
:1000D00021F48BB38F7D8BBB08958630910521F47D
:1000E0008BB38F7B8BBB08958730910521F48BB345
:1000F0008F778BBB08958A30910521F488B38E7F6A
:1001000088BB08958B30910521F488B38D7F88BB1F
:1001100008958C30910521F488B38B7F88BB0895B6
:100120008D30910521F488B3877F88BB08958E3088
:10013000910521F488B38F7E88BB08958F30910597
:1001400021F488B38F7D88BB08958031910521F417
:1001500088B38F7B88BB08958131910521F488B3E2
:100160008F7788BB08958431910521F485B38E7F04
:1001700085BB08958531910521F485B38D7F85BBBD
:1001800008958631910521F485B38B7F85BB089551
:100190008731910521F485B3877F85BB0895883128
:1001A000910521F485B38F7E85BB08958931910532
:1001B00021F485B38F7D85BB08958A31910521F4A3
:1001C00085B38F7B85BB08958B31910521F485B371
:1001D0008F7785BB08958E31910521F482B38E7F90
:1001E00082BB08958F31910521F482B38D7F82BB4C
:1001F00008958032910521F482B38B7F82BB0895EC
:100200008132910521F482B3877F82BB08958232C7
:10021000910521F482B38F7E82BB089583329105CC
:1002200021F482B38F7D82BB08958432910521F43D
:1002300082B38F7B82BB0895859709F0E1C082B3BA
:100240008F7782BB0895009721F48BB381608BBBBD
:1002500008958130910521F48BB382608BBB0895A2
:100260008230910521F48BB384608BBB0895833079
:10027000910521F48BB388608BBB08958430910580
:1002800021F48BB380618BBB08958530910521F4F7
:100290008BB380628BBB08958630910521F48BB3BC
:1002A00080648BBB08958730910521F48BB38068FF
:1002B0008BBB08958A30910521F488B3816088BB97
:1002C00008958B30910521F488B3826088BB08952E
:1002D0008C30910521F488B3846088BB08958D30FB
:1002E000910521F488B3886088BB08958E3091050C
:1002F00021F488B3806188BB08958F30910521F483
:1003000088B3806288BB08958031910521F488B359
:10031000806488BB08958131910521F488B3806899
:1003200088BB08958431910521F485B3816085BB34
:1003300008958531910521F485B3826085BB0895C8
:100340008631910521F485B3846085BB089587319A
:10035000910521F485B3886085BB089588319105A6
:1003600021F485B3806185BB08958931910521F41D
:1003700085B3806285BB08958A31910521F485B3E8
:10038000806485BB08958B31910521F485B3806825
:1003900085BB08958E31910521F482B3816082BBC3
:1003A00008958F31910521F482B3826082BB089554
:1003B0008032910521F482B3846082BB089581323A
:1003C000910521F482B3886082BB08958232910541
:1003D00021F482B3806182BB08958332910521F4B8
:1003E00082B3806282BB08958432910521F482B386
:1003F000806482BB0895859719F482B3806882BBBC
:100400000895CF93C82F80FF07C061E070E080E0BF
:1004100090E00E94410006C060E070E080E090E063
:100420000E944100C1FF07C061E070E081E090E000
:100430000E94410006C060E070E081E090E00E9410
:100440004100C2FF07C061E070E082E090E00E94DE
:10045000410006C060E070E082E090E00E94410050
:10046000C3FF07C061E070E083E090E00E944100BC
:1004700006C060E070E083E090E00E944100CF9110
:100480000895CF93C82F60E070E086E090E00E946E
:1004900041008C2F0E94010261E070E085E090E055
:1004A0000E9441008FE99FE00197F1F700C0000032
:1004B00060E070E085E090E00E9441008FE99FE0FD
:1004C0000197F1F700C00000CF910895CF938130DC
:1004D00099F480E8860F90E0959587959595879596
:1004E0009595879595958795C62FCF700E94410267
:1004F0008C2F0E94410214C0823091F480EC860F50
:1005000090E095958795959587959595879595957F
:100510008795C62FCF700E9441028C2F0E94410206
:10052000CF91089580E00E9401022FEF89EF90E0C3
:10053000215080409040E1F700C0000083E00E941D
:1005400041028FE19EE40197F1F700C0000083E0D3
:100550000E9441028FED9BEA0197F1F700C0000075
:1005600083E00E94410282E00E94410282E00E94F8
:10057000410288E00E94410280E00E9441028CE03A
:100580000E94410280E00E94410286E00E944102F6
:100590000895CF93DF93D82FDF70C82FC07F61E01D
:1005A00070E086E090E00E9441008C2F90E09595ED
:1005B00087959595879595958795959587950E94AB
:1005C000010261E070E085E090E00E9441008FE967
:1005D0009FE00197F1F700C0000060E070E085E067
:1005E00090E00E9441008FE99FE00197F1F700C081
:1005F00000008D2F0E94010261E070E085E090E034
:100600000E9441008FE99FE00197F1F700C00000D0
:1006100060E070E085E090E00E9441008FE99FE09B
:100620000197F1F700C00000DF91CF9108950F937B
:100630001F93CF93DF938C01C0E0D0E0F801EC0F63
:10064000FD1F8081882321F00E94C9022196F6CFE8
:10065000DF91CF911F910F91089511B88CE080B96F
:10066000089594EA96BF06B607FEFDCF91B1987F34
:10067000983071F483B984E886BF06B607FEFDCFD3
:1006800081B1887F883131F0803231F482E0089581
:1006900080E0089581E0089583E0089594EA96BF8C
:1006A00006B607FEFDCF91B1987F903171F483B902
:1006B00084E886BF06B607FEFDCF81B1887F80340F
:1006C00031F0883431F482E0089580E0089581E0CB
:1006D000089583E0089583B984E886BF06B607FECF
:1006E000FDCF81B1887F883221F0803321F481E011
:1006F000089580E0089582E0089584EC86BF06B6F0
:1007000007FEFDCF83B1089584E886BF06B607FED5
:10071000FDCF83B1089584E986BF06B604FCFDCF02
:100720000895CF93DF93CDB7DEB72A970FB6F8942D
:10073000DEBF0FBECDBF8FEF8ABB0E9492020E9428
:100740002D0360E081E00E94660280E690E00E9456
:10075000170360E082E00E9466028EE690E00E944D
:10076000170380E20E9431038FE19EE40197F1F7C5
:1007700000C0000010E01A3040F51F921F938FE771
:1007800090E09F938F93CE0101967C019F938F936E
:100790000E943A046DE082E00E946602C7010E9456
:1007A0001703812F0E946B039FEF29E688E1915088
:1007B00020408040E1F700C000001F5F0F900F90C5
:1007C0000F900F900F900F90D6CF60E082E00E94C4
:1007D000660286E890E00E94170381E20E944E03C1
:1007E0008FE19EE40197F1F700C0000010E01A309D
:1007F000F0F51930A8F40E947D031F928F938FE7C4
:1008000090E09F938F93CE0101969F938F930E94C8
:100810003A040F900F900F900F900F900F9014C00C
:100820000E9484031F928F938FE790E09F938F9392
:10083000CE0101969F938F930E943A040F900F90E0
:100840000F900F900F900F906DE082E00E94660273
:10085000CE0101960E9417039FEF29E688E191508F
:1008600020408040E1F700C000001F5FC0CF0E9421
:100870008B036FCFAEE0B0E0E0E4F4E00C94FB0655
:100880000D891E8986E08C831A8309838FEF9FE789
:100890009E838D83AE01475E5F4F6F89788DCE0159
:1008A00001960E945C04EF81F885E00FF11F108231
:1008B0002E96E4E00C941707ABE0B0E0E2E6F4E03B
:1008C0000C94ED066C017B018A01FC0117821682F3
:1008D000838181FFCCC1CE0101963C01F601938159
:1008E000F70193FD859193FF81917F01882309F49E
:1008F000BAC1853239F493FD859193FF81917F01CF
:10090000853229F4B60190E00E945306E7CF912C7E
:10091000212C312CFFE1F315D8F08B3279F038F42B
:10092000803279F08332A1F4232D20611DC08D32F5
:1009300061F0803369F4232D216016C0832D82601D
:10094000382EE32DE4603E2E2AC0F32DF8601DC042
:1009500037FC2DC020ED280F2A3040F08E32B9F43C
:1009600036FC81C1232D2064322E19C036FE06C00C
:100970008AE0989E200D1124922E11C0EAE02E9E4E
:10098000200D1124222EF32DF0623F2E08C08C364C
:1009900021F4832D8068382E02C0883641F4F70197
:1009A00093FD859193FF81917F018111B3CF982FA2
:1009B0009F7D9554933028F40C5F1F4F9FE39983DC
:1009C0000DC0833631F0833771F0833509F059C09B
:1009D00021C0F801808189830E5F1F4F8824839492
:1009E000912C530113C02801F2E04F0E511CF80165
:1009F000A080B18036FE03C0692D70E002C06FEFA9
:100A00007FEFC5010E9448064C018201F32DFF775C
:100A10003F2E16C0280122E0420E511CF801A08092
:100A2000B18036FE03C0692D70E002C06FEF7FEF2A
:100A3000C5010E943D064C01F32DF0683F2E820156
:100A400033FC1BC0822D90E088169906B0F4B601E5
:100A500080E290E00E9453062A94F4CFF50137FC1F
:100A6000859137FE81915F01B60190E00E945306A7
:100A700021102A9421E0821A91088114910471F7BF
:100A8000E8C0843611F0893641F5F80137FE07C019
:100A900060817181828193810C5F1F4F08C06081EA
:100AA0007181072E000C880B990B0E5F1F4FF32DE1
:100AB000FF763F2E97FF09C09095809570956195C0
:100AC0007F4F8F4F9F4FF0683F2E2AE030E0A30109
:100AD0000E948F06882E861845C0853731F4232D55
:100AE0002F7EB22E2AE030E025C0932D997FB92EBB
:100AF0008F36C1F018F4883579F0B5C0803719F019
:100B0000883721F0B0C0E92FE061BE2EB4FE0DC0E1
:100B1000FB2DF460BF2E09C034FE0AC0292F2660C9
:100B2000B22E06C028E030E005C020E130E002C06F
:100B300020E132E0F801B7FE07C060817181828157
:100B400093810C5F1F4F06C06081718180E090E04F
:100B50000E5F1F4FA3010E948F06882E8618FB2D63
:100B6000FF773F2E36FE0DC0232D2E7FA22E891437
:100B700058F434FE0BC032FC09C0832D8E7EA82EA3
:100B800005C0B82CA32C03C0B82C01C0B92CA4FEFE
:100B90000FC0FE01E80DF11D8081803321F49A2DF4
:100BA000997EA92E09C0A2FE06C0B394B39404C0D6
:100BB0008A2D867809F0B394A3FC11C0A0FE06C06C
:100BC000B21488F4280C922C9B180EC0B21460F456
:100BD000B60180E290E00E945306B394F7CFB214BE
:100BE00018F42B1802C0982C212CA4FE10C0B601BA
:100BF00080E390E00E945306A2FE17C0A1FC03C050
:100C000088E790E002C088E590E0B6010CC08A2D2C
:100C1000867859F0A1FE02C08BE201C080E2A7FCF9
:100C20008DE2B60190E00E945306891438F4B601B3
:100C300080E390E00E9453069A94F7CF8A94F301E0
:100C4000E80DF11D8081B60190E00E9453068110ED
:100C5000F5CF222009F442CEB60180E290E00E9456
:100C600053062A94F6CFF6018681978102C08FEF52
:100C70009FEF2B96E2E10C940907FC01059061506F
:100C800070400110D8F7809590958E0F9F1F0895A2
:100C9000FC016150704001900110D8F7809590954B
:100CA0008E0F9F1F08950F931F93CF93DF93FB0128
:100CB000238121FD03C08FEF9FEF2CC022FF16C0C0
:100CC00046815781248135814217530744F4A0811E
:100CD000B1819D012F5F3F4F318320838C9326810B
:100CE00037812F5F3F4F3783268314C08B01EC0180
:100CF000FB010084F185E02D0995892BE1F6D801EF
:100D000016968D919C911797019617969C938E93AA
:100D10001697CE01DF91CF911F910F910895FA019F
:100D2000AA27283051F1203181F1E8946F936E7F2A
:100D30006E5F7F4F8F4F9F4FAF4FB1E03ED0B4E01B
:100D40003CD0670F781F891F9A1FA11D680F791F5C
:100D50008A1F911DA11D6A0F711D811D911DA11D6D
:100D600020D009F468943F912AE0269F112430197D
:100D7000305D3193DEF6CF010895462F4770405D18
:100D80004193B3E00FD0C9F7F6CF462F4F70405DC7
:100D90004A3318F0495D31FD4052419302D0A9F722
:100DA000EACFB4E0A6959795879577956795BA951C
:100DB000C9F700976105710508959B01AC010A2EE2
:100DC00006945795479537952795BA95C9F7620FB9
:100DD000731F841F951FA01D08952F923F924F925D
:100DE0005F926F927F928F929F92AF92BF92CF92BB
:100DF000DF92EF92FF920F931F93CF93DF93CDB7C4
:100E0000DEB7CA1BDB0B0FB6F894DEBF0FBECDBF3B
:100E100009942A88398848885F846E847D848C840C
:100E20009B84AA84B984C884DF80EE80FD800C8115
:100E30001B81AA81B981CE0FD11D0FB6F894DEBFF8
:0C0E40000FBECDBFED010895F894FFCF68
:100E4C004D61737465722044657669636500536502
:100E5C006E64696E67203A20202020202020002517
:100E6C00642020202000526563656976696E6720D6
:0A0E7C003A20202020202020000052
:00000001FF
